:100000000C94540D0C94850D0C94850D0C94850D59
:100010000C94850D0C94850D0C94850D0C94850D18
:100020000C94850D0C94850D0C94850D0C94850D08
:100030000C9490B20C94850D0C94850D0C94850D48
:100040000C94850D0C94850D0C94850D0C94850DE8
:100050000C94850D0C94850D0C94850D0C943194A5
:100060000C94850D0C94D7D80C94ADD80C94850DB8
:100070000C94850D0C94850D0C94850D0C94850DB8
:100080000C94850D0C94850D0C94850D0C94850DA8
:100090000C94850D0C94850D0C94850D0C94359A5B
:1000A0000C94850D0C94850D0C94850D0C94850D88
:1000B0000C94850D0C94850D0C94850D0C94850D78
:1000C0000C94850D0C94850D0C94850D0C94850D68
:1000D0000C94850D0C94850D0C94850D0C94850D58
:1000E0000C94850DA024A024A0244F2BBB283F29CD
:1000F000A024A0244F2BBB28218C258C0F8C158C81
:100100001B8C6A8C298C2F8C358C3B8C418C478CBA
:100110004D8C538C6A8C598C5F8C658C60997E9960
:100120007E997C997E995D997E997E997E994D996B
:100130007E997E996999799976997E997E997E9929
:100140007399439B479B479B479B479B479B479B79
:10015000479B579A479B479B479B479B479B479B80
:10016000479B579A479B479B479B479B479B479B70
:10017000479B5F9A479B479B479B479B479B479B58
:10018000479B859A479B479B479B479B479B479B22
:10019000479B5F9A479B479B479B479B479B479B38
:1001A000479B8B9A479B479B479B479B479B479BFC
:1001B000479B919A479B479B479B479B479B479BE6
:1001C000479BA39A479B479B479B479B479B479BC4
:1001D000479BCD9A479B479B479B479B479B479B8A
:1001E000479B979A479B479B479B479B479B479BB0
:1001F000479BB19A479B479B479B479B479B479B86
:10020000479BD09A479B479B479B479B479B479B56
:10021000479BD09A479B479B479B479B479B479B46
:10022000479BD09A479B479B479B479B479B479B36
:10023000479BD09A479B479B479B479B479B479B26
:10024000479BD99A479B479B479B479B479B479B0D
:10025000479B0A9B479B479B479B479B479B479BCB
:10026000479BD99A479B479B479B479B479B479BED
:10027000479B0A9B479B479B479B479B479B479BAB
:10028000479BF19A479B479B479B479B479B479BB5
:10029000479B0E9B479B479B479B479B479B479B87
:1002A000479B0E9B479B479B479B479B479B479B77
:1002B000479B239B479B479B479B479B479B479B52
:1002C000479B3D9B479B479B479B479B479B479B28
:1002D000479B3D9BD2E8D8E8DEE8E4E8EAE8F0E8AE
:1002E000F6E807634236B79BD8A71A39685618AEA6
:1002F000BAAB558C1D3CB7CC5763BD6DEDFD753E5B
:10030000F6177231BF000000803F08000000BE9267
:100310002449123EABAAAA2ABECDCCCC4C3E00004A
:100320000080BEABAAAAAA3E00000000BF000000E9
:10033000803F0000000000084178D3BB4387D11301
:100340003D190E3CC3BD4282AD2B3E68EC8276BEA9
:10035000D98FE1A93E4C80EFFFBE01C4FF7F3F0073
:10036000000000000C94EDA10C94F3FB0C9451A937
:100370000C94FC960C94418C0C94CD9A0C94B1CFB7
:100380000C9415AC0C940A9B0C9498B70C94F6E85A
:100390000C94F1C10C9472AA0C9434D60C9441A91B
:1003A0000C94F8D40C9476980C947E990C94349711
:1003B0000C94D3FB0C948EA10C941B8C0C943F29B1
:1003C0000C94D09A0C9480D50C9469990C94490D96
:1003D0000C94979A0C94B0A00C94A1A90C946CC99D
:1003E0000C943D9B0C947DA40C94579A0C9470B380
:1003F0000C947C990C9478A10C94D8E80C944D8CB6
:100400000C94FCD30C94F7E90C9473AA0C94B7A346
:100410000C94239B0C9455E60C94A39A0C945F8C3B
:100420000C9474E60C94DEE80C9486A60C9485E695
:100430000C940E9B0C9434A10C94D9960C94B2CFCE
:100440000C9440A00C94F2B90C944CFD0C94E896DA
:100450000C94358C0C94439B0C9471AA0C94D896F4
:100460000C945F9A0C94478C0C9430AA0C946CD525
:100470000C94F1FD0C9483A00C9473990C94D0D53A
:100480000C94FDC40C944D990C9495A20C947699FF
:100490000C945AD50C94D99A0C94298C0C94F0E8AD
:1004A0000C94BB280C94870D0C94C4A10C94158C4F
:1004B0000C94E0C10C94F38C0C9462A90C9416A1DA
:1004C0000C9479990C94479B0C94A3B60C9444C655
:1004D0000C94658C0C94D2E80C94E3A30C94538C8C
:1004E0000C948AA60C942F8C0C940F8C0C94218C59
:1004F0000C946AA80C9487FE0C94A0240C94D796B4
:100500000C9460990C945D990C948B9A0C94D696EB
:100510000C9404970C94EAE80C9483FE0C946A8C77
:100520000C944F2B0C9479A10C943B8C0C94859AD1
:100530000C94E4E80C94919A0C94AEA00C94B19AAB
:100540000C94598C0C948BA30C94258C0C948ED504
:100550000C94E9FC0C94F19A63686F69782000664A
:1005600061697265207365636F6E646500726565AD
:100570006C6C6500636F727269676565006D6573A9
:1005800075726565006D6573757265006475206CC4
:100590006F63616C0053656C637420536F6E6465A8
:1005A00020546F006F6B00456C656374726F7661E9
:1005B0006E6E65006D730074656D707320646520E8
:1005C0006665726D65747572652045563A20004CFB
:1005D0006F7273206465206C61206665726D65744E
:1005E0007572652C206C27656C656374726F76611B
:1005F0006E6E652073656D626C65207327C3AA7487
:10060000726520617272C3A974C3A920656E2063EC
:100610006F7572732E20536F6974206C27656C653B
:100620006374726F616E6E6520657374206C656EA5
:10063000746520283E313073292C20736F69742033
:10064000656C6C652065737420626C6F7175C3A9ED
:100650002C20736F6974206C6520636170746575FC
:1006600072206465206C27C3A9746174206F75764D
:10067000657274206120756E206465666175742EE4
:10068000004CE28099656C656374726F76616E6E82
:10069000652065737420656E636F7265206F757673
:1006A0006572746520616C6F7273207175E2809958
:1006B000756E65206665726D657475726520612062
:1006C000C3A974C3A92064656D616E64C3A9652E56
:1006D00020456C656374726F76616E6E6520626C26
:1006E0006F7175C3A965206F7520696E7665727329
:1006F000C3A9652E006665726D65747572652064A8
:1007000065206C27656C656374726F76616E6E65CB
:10071000204F4B004C6F7273206465206C276F75FF
:10072000766572747572652C206C27656C656374D0
:10073000726F76616E6E652073656D626C65207395
:1007400027C3AA74726520617272C3A974C3A920F9
:10075000656E20636F7572732E20536F6974206C01
:1007600027656C656374726F616E6E652065737466
:10077000206C656E746520283E313073292C2073FF
:100780006F697420656C6C652065737420626C6F92
:100790007175C3A92C20736F6974206C6520636127
:1007A0007074657572206465206C27C3A9746174C8
:1007B000206F7576657274206120756E20646566A1
:1007C0006175742E004CE28099656C656374726F7C
:1007D00076616E6E652065737420656E636F7265F9
:1007E000206665726DC3A920616C6F72732071758C
:1007F000E28099756E65206F7576657274757265A5
:10080000206120C3A974C3A92064656D616E64C3AF
:10081000A92E20456C656374726F76616E6E6520DB
:10082000626C6F7175C3A965206F7520696E7665FE
:100830007273C3A9652E006F7576657274757265E3
:10084000207061727469656C6C65206465206C272A
:10085000656C656374726F76616E6E65204F4B00D8
:100860004665726D6574757265206C6F7273206475
:1008700065206C276F757665727475726520646586
:10088000206C27656C656374726F76616E6E652E81
:1008900020456C656374726F76616E6E65206F754E
:1008A000206361707465757220696E76657273C3BA
:1008B000A97300457272657572206C6F7273206443
:1008C00065206C276F75766572747572652070612E
:1008D000727469656C6C65206465206C27656C6555
:1008E0006374726F76616E6E652E20417563756EEE
:1008F000206368616E67656D656E74206E27657331
:1009000074206F6273657276652E20456C65637422
:10091000726F76616E6E6520626C6F7175656520B1
:100920006F75206D616C206272616E636865652011
:100930006F752063617074657572206D616C2062E3
:1009400072616E636865002026206361707465754E
:10095000720054657374206465206C27656C656350
:1009600074726F76616E6E65200070617274696575
:100970006C006665726D6565006F757665727400F2
:1009800065746174006D6F6465006572726575727F
:10099000006563686F756500656E20636F757273BF
:1009A00000656C656374726F76616E6E6500746568
:1009B0007374206465206C270073656C65637469CB
:1009C0006F6E206D6F64650073656C65637400669F
:1009D000726F696400636861756400736F6E64654B
:1009E00020636F6E666967757265652100636F6E5F
:1009F0006669677572650061637475656C6C650026
:100A000000002200250028002B002E0031003400B9
:100A100002010000050108010B0100002000230075
:100A2000260029002C002F003200000100000301E5
:100A30000601090100000A0B02090C0D0E0807034C
:100A400004010000000000000000000000000000A1
:100A50000000000000000000000000000000000096
:100A60001211100000000000000000000000000053
:100A70000000000000000000000000002100240031
:100A800027002A002D00300033000101000004017E
:100A900007010A0101021020200808102040102040
:100AA0004080020102010804020101020408102032
:100AB0004080804020100804020180040201804030
:100AC0002010080402010804020101020408102099
:100AD0004080010204081020408005050505070537
:100AE00008080808020202020A0A080804040404AA
:100AF00001010101010101010303030303030303D6
:100B0000040707070C0C0C0C0C0C0C0C0202020264
:100B100006060606060606060B0B0B0B0B0B0B0B4D
:100B20006D6F69730073656D61696E65006A6F75DD
:100B300072006865757265006D696E757465005444
:100B40006F75746C00706173736167652048503E07
:100B5000484300706173736167652048433E4850A5
:100B60000044696D004C756E004D6172004D6572F8
:100B7000004A65750056656E0053616D006E6F6EBC
:100B8000006F7569007265746F7572006F6B006934
:100B90006E7465726E6500617563756E650040A068
:100BA00040182020186E2D63660073746F70001F4C
:100BB0001C1F1E1F1E1F1F1E1F1E1F0000000000E7
:100BC0003E5B4F5B3E3E6B4F6B3E1C3E7C3E1C18BB
:100BD0003C7E3C181C577D571C1C5E7F5E1C001819
:100BE0003C1800FFE7C3E7FF0018241800FFE7DB0D
:100BF000E7FF30483A060E2629792926407F050569
:100C000007407F05253F5A3CE73C5A7F3E1C1C08A5
:100C1000081C1C3E7F14227F22145F5F005F5F066A
:100C2000097F017F006689956A606060606094A2B8
:100C3000FFA29408047E040810207E201008082AD1
:100C40001C08081C2A08081E101010100C1E0C1E70
:100C50000C30383E3830060E3E0E06000000000014
:100C600000005F00000007000700147F147F1424B9
:100C70002A7F2A122313086462364956205000083E
:100C8000070300001C2241000041221C002A1C7F97
:100C90001C2A08083E080800807030000808080870
:100CA00008000060600020100804023E5149453EE3
:100CB00000427F400072494949462141494D33185D
:100CC00014127F1027454545393C4A494931412195
:100CD0001109073649494936464949291E00001479
:100CE00000000040340000000814224114141414C1
:100CF00014004122140802015909063E415D594E73
:100D00007C1211127C7F494949363E414141227F84
:100D10004141413E7F494949417F090909013E411D
:100D20004151737F0808087F00417F410020404106
:100D30003F017F081422417F404040407F021C0257
:100D40007F7F0408107F3E4141413E7F090909062B
:100D50003E4151215E7F09192946264949493203FE
:100D6000017F01033F4040403F1F2040201F3F4084
:100D700038403F631408146303047804036159493D
:100D80004D43007F41414102040810200041414190
:100D90007F04020102044040404040000307080075
:100DA00020545478407F28444438384444442838F8
:100DB0004444287F385454541800087E090218A46B
:100DC000A49C787F0804047800447D4000204040C3
:100DD0003D007F1028440000417F40007C047804DF
:100DE000787C080404783844444438FC18242418D7
:100DF00018242418FC7C080404084854545424047F
:100E0000043F44243C4040207C1C2040201C3C40AB
:100E100030403C44281028444C9090907C446454CA
:100E20004C440008364100000077000000413608BD
:100E30000002010204023C2623263C1EA1A16112ED
:100E40003A4040207A385454555921555579412219
:100E500054547842215554784020545579400C1E02
:100E600052721239555555593954545459395554AB
:100E700054580000457C410002457D420001457CFC
:100E8000407D1211127DF0282528F07C5455450034
:100E90002054547C547C0A097F4932494949323AEA
:100EA0004444443A324A4848303A4141217A3A422D
:100EB000402078009DA0A07D3D4242423D3D404003
:100EC000403D3C24FF2424487E4943662B2FFC2FC1
:100ED0002BFF0929F620C0887E090320545479414C
:100EE0000000447D413048484A32384040227A0070
:100EF0007A0A0A727D0D19317D2629292F28262983
:100F000029292630484D40203808080808080808D4
:100F100008382F10C8ACBA2F102834FA00007B0014
:100F20000008142A142222142A14085500550055CA
:100F3000AA55AA55AAFF55FF55FF000000FF001053
:100F40001010FF00141414FF001010FF00FF101009
:100F5000F010F0141414FC001414F700FF0000FF4C
:100F600000FF1414F404FC141417101F10101F10A9
:100F70001F1414141F00101010F0000000001F10A8
:100F80001010101F10101010F010000000FF1010B3
:100F900010101010101010FF10000000FF140000BF
:100FA000FF00FF00001F10170000FC04F4141417CA
:100FB00010171414F404F40000FF00F714141414B0
:100FC000141414F700F7141414171410101F101F22
:100FD000141414F4141010F010F000001F101F006F
:100FE00000001F14000000FC140000F010F01010AE
:100FF000FF10FF141414FF141010101F0000000045
:10100000F010FFFFFFFFFFF0F0F0F0F0FFFFFF0038
:1010100000000000FFFF0F0F0F0F0F38444438444B
:10102000FC4A4A4A347E02020606027E027E0263BF
:10103000554941633844443C04407E201E2006024A
:101040007E020299A5E7A5991C2A492A1C4C720127
:10105000724C304A4D4D303048784830BC625A4668
:101060003D3E494949007E0101017E2A2A2A2A2A59
:1010700044445F444440514A444040444A51400043
:1010800000FF0103E080FF000008086B6B083612C8
:10109000362436060F090F0600001818000000104D
:1010A00010003040FF0101001F01011E00191D1733
:1010B00012003C3C3C3C000000000000EAE0000064
:1010C00000444040AA000044000048884084448016
:1010D00000A4A0004E40000048000E0000004002A6
:1010E00044804AAA404C44E0E2E8E0C2C2C088E43E
:1010F00040E8C2C0E8EAE0E24440EAEAE0EAE2E0CE
:101100000040400040480242000E0E000424004A05
:1011100020404AEE874AEAA0CACAC0688860CAAAC4
:10112000C0E8E8E0E8E88068B960AAEAA0E444E042
:10113000E4444CAACAA08888E0EAAAA0AEEEA04A7D
:10114000AA40CAC8804AAA61CACAA06842C0E44488
:1011500040AAAAE0AAAA40AAAE40AA4AA0AA44402D
:10116000E248E0C888C0084420C444C040A0000051
:1011700000F0840000648460444444C4204C005A5D
:10118000004A4000005EBCE2613FDD83C29C7E20DD
:10119000A3FD1F419DC3217FFCA2401E5F01E3BD53
:1011A0003E6082DC237D9FC1421CFEA0E1BF5D0347
:1011B00080DE3C62BEE0025CDF81633D7C22C09E3B
:1011C0001D43A1FF4618FAA427799BC584DA386627
:1011D000E5BB5907DB856739BAE406581947A5FB13
:1011E0007826C49A653BD987045AB8E6A7F91B4507
:1011F000C6987A24F8A6441A99C7257B3A6486D8FB
:101200005B05E7B98CD2306EEDB3510F4E10F2ACE6
:101210002F7193CD114FADF3702ECC92D38D6F31D2
:10122000B2EC0E50AFF1134DCE90722C6D33D18FC6
:101230000C52B0EE326C8ED0530DEFB1F0AE4C12BA
:1012400091CF2D73CA947628ABF517490856B4EAA6
:101250006937D58B5709EBB536688AD495CB297792
:10126000F4AA4816E9B7550B88D6346A2B7597C986
:101270004A14F6A8742AC896154BA9F7B6E80A547A
:10128000D7896B35646F6E6E65657320696E636FA9
:1012900072726563746573006E6220646520706CA1
:1012A000616765007265676C6167650043757669A3
:1012B0006E6F47554900617563756E652045562010
:1012C000666F6E6374696F6E6E656C6C65730045F6
:1012D00056204368617564207365756C65004556DA
:1012E0002046726F6964207365756C65006F757652
:1012F000657274757265006665726D657475726588
:101300000045562046726F6964206574204556205A
:101310004368617564006368617564006665726D39
:101320006565006F757665727400706F73697469B6
:101330006F6E2061637475656C6C65006D6F6465BC
:101340000066726F6964004556006D65737572655D
:1013500065006F626A65637469660074656D7065C7
:10136000726174757265004C69676E6500636F6EBB
:1013700074726F6C54656D7000437576696E6F435F
:101380006F72650065727200457272430065746128
:101390007441666669636861676528006163747596
:1013A000616C69736541666654656D702800676598
:1013B0007374696F6E004572726575723A202020F1
:1013C00020202020417563756E6520637576652049
:1013D0002020636F6E6669677572656500646520BD
:1013E0006661697265006574657320766F75732038
:1013F000737572006C61206D656D6F697265007246
:1014000065696E697469616C6973657200636F6E9A
:1014100066696775726174696F6E002D2D2D2D2DB3
:101420002D2D2D2D2D2D2D2D2D2D2D006C69676E23
:10143000652061707265733A006C69676E65206142
:1014400076743A006D656E75436F6E666967757286
:101450006174696F6E282900637576650073617623
:101460006500202D2D2D2D2D2D2D2D2D2D2D2042A6
:101470006C6F632063757665202D205245494E4977
:1014800054202D2D2D2D2D2D2D2D2D2D2D2D2D009F
:1014900073617665506172616D73282900746F7590
:1014A000746573206C6573007375707072696D6517
:1014B00072006C6973746500496E636F6E6E75655A
:1014C00000417563756E4D767400496E7665727372
:1014D000696F004F75767265205061004F426C6FE6
:1014E000714D696C004665726D6520506100464221
:1014F0006C6F714D696C0054797065204556200001
:10150000636F726500696E69744166665374616EDB
:101510006461726400636F6E66002D2D3A2D2D009C
:10152000616666696368654C69676E65280061631A
:101530007475616C69736545746174455628006300
:101540006F6D6D616E646500437576696E6F546989
:101550006D657200696E697442726F6368657300CD
:1015600052544320776173206E6F742061637469F5
:1015700076656C792072756E6E696E672C20737457
:10158000617274696E67206E6F7700525443206CED
:101590006F737420636F6E666964656E636520693E
:1015A0006E20746865204461746554696D6521001E
:1015B000696E6974456372616E00696E697447553E
:1015C00049006461746500206D656D6F6972652006
:1015D00056302E3100202020202056302E31002081
:1015E000202020437576696E6F0073706C6173689C
:1015F00053637265656E006C6F6164006375766538
:10160000006E6200202D2D2D2D2D2D2D2D2D2D2DFB
:1016100020426C6F632063757665202D2D2D2D2D56
:101620002D2D2D2D2D2D2D2D00626C6F6320696CBD
:10163000697369626C65202843524320C3A9726FA5
:101640006EC3A965290076657273696F6E20646543
:1016500020626C6F63206E6F6E20737570706F7296
:1016600074C3A9007072696E636970616C00457221
:1016700072657572206C6F7273206465206C6120D6
:101680006C65637475726520647520626C6F6300AD
:101690006D6F646520626C6F633A0061647265739C
:1016A000736520626C6F633A007461696C6C6520CD
:1016B000626C6F633A0043524331362063616C635E
:1016C000756CC3A9653A004352433136206C756589
:1016D0003A00202D2D2D2D2D2D2D2D2D2D2D20425F
:1016E0006C6F63207072696E636970616C202D2D60
:1016F0002D2D2D2D2D2D2D2D2D2D2D00436861727D
:1017000067656D656E7420696D706F737369626C67
:10171000650056657273696F6E206465206DC3A99C
:101720006D6F697265206E6F6E20737570706F7269
:1017300074C3A9652028006C6F6164506172616D8B
:1017400073282900696E6974437576657300656E48
:1017500064007363686564756C65720073746172AC
:101760007400746F75636865203D3E200065727279
:10177000657572730048432F485000484947480038
:10178000202B2031004C4F57006469676974616CED
:1017900057726974652800237265706F7328006F33
:1017A00075766572747572650074656D7000746528
:1017B0006D7073206465206D6F7576656D656E74F0
:1017C000206465206C27656C656374726F76616E4A
:1017D0006E652062656175636F75702074726F70DD
:1017E000206C6F6E672021204552524555522021B2
:1017F000002366696E4D7674546F74616C280045E1
:10180000563200536F6E64650021206973536F6E0A
:10181000646554656D7020006973445331384232F9
:1018200030006973445333323331002120697353DC
:101830006F6E646554656D702000536F6E646556FD
:10184000322800536F6E64650043757665004375FA
:101850007665006375766500696E7465726E650005
:10186000617563756E6500616E6E756C657200768C
:10187000616C696465720065746174006665726D9F
:101880006572006F75767269720065727265757245
:101890000043522D3035204D61696E742E00435245
:1018A0002D3031204D61696E742E0043522D30353C
:1018B000204D2E204665722E0043522D3031204D92
:1018C0002E204665722E0043522D3035204D2E209D
:1018D0004F75762E0043522D3031204D2E204F75FE
:1018E000762E0043522D30352D410043522D303598
:1018F0002D4E0043522D3031206D6F64696669654D
:10190000650043522D3031006E6F6E20636F6E663E
:101910006967757265005041525449454C003D3E1F
:10192000006469676974616C52656164280065745C
:1019300061742073757220322066696C73002365B0
:1019400074617445562829006665726D65747572F8
:1019500065004155545245004F5556455254004676
:1019600045524D450023626F7567654556746F7427
:10197000616C28002C2045562063686175643A002C
:101980002C2045562066726F69643A00736F6E644E
:101990006500C2B02C0030363235004375766528BC
:1019A000006D6F646500656C656374726F76616E5F
:1019B0006E650021206973536F6E646554656D70A8
:1019C0002000697344533138423230006973445304
:1019D000333233310021206973536F6E646554656F
:1019E0006D702000536F6E6465563228002C2045C0
:1019F000562063686175643A002C20455620667253
:101A00006F69643A00536F6E64652000C2B02C00A9
:101A10003036323500437576652800436F726500B5
:101A200050726F670054696D657200475549006DCB
:101A300061696E007265736574006172726574002D
:101A40007265696E69742E206D656D2E00436F6E30
:101A500066204F4B004E6F20636F6E66006F757689
:101A6000657274757265006665726D657475726510
:101A70000063616C696272616765006E6F6D00453D
:101A80005600736F6E6465006D6F64696669657298
:101A900000000E94F7EA809192058230D0F30E9404
:101AA00093B2F7CF87FE83FE11241FBECFEFD1E2A2
:101AB000DEBFCDBF00E00CBF14E0A0E0B2E0E0EC80
:101AC000F9E002E00BBF02C007900D92AA35B10702
:101AD000D9F72BE0AAE5B4E001C01D92A533B20707
:101AE000E1F71DE0C3E5DDE000E006C02197010954
:101AF000802FFE010E94BFFFC235D10780E008079A
:101B0000A9F70E948C940D94CE040C940000CF93FE
:101B1000DF93CDB7DEB72A970FB6F894DEBF0FBEBE
:101B2000CDBFE0915E04F0915F0470806624639401
:101B30007110612C772031F00580F681E02DC08096
:101B4000D18002C0C12CD12C8091BA058F5F8093C7
:101B5000BA050FB6F8940F92809090059090910579
:101B60000F900FBE80915A0490915B0488169906DD
:101B700008F420C480E032C40580F681E02DA08006
:101B8000B180E680F78087010E5F1F4FD80118965D
:101B9000ED91FC91199712962D913C911397149603
:101BA0008D919C911597D90115969C938E931497BE
:101BB000D80114962D913C91159712968D919C9178
:101BC0001397D90113969C938E93129781819281DA
:101BD0000817190739F4D80114968D919C9115971F
:101BE00092838183D80119961C921E921897808146
:101BF00081508083D7015196ED91FC915297C70196
:101C00001995F7018685813009F0D4C384859585BF
:101C10008A0D9B1DA816B906E8F593838283F18689
:101C2000E08660915E0470915F04D8018D919C9173
:101C30008F3FBFEF9B0731F4DB011796ED91FC91CD
:101C400018970CC0FB01339601C0F9012281338142
:101C5000D9014D915C9184179507B8F782819381E2
:101C6000D80113969C938E931297DC0115961C93C2
:101C70000E931497D8011596FC93EE931497138343
:101C8000028319967C936E931897FB0180818F5F76
:101C9000808390C38091720490917304892B09F41E
:101CA00089C31982BB82AA82FD82EC82809175046D
:101CB000882331F08091BA05811104C082E003C00D
:101CC00081E001C080E0823009F0BDC10091720462
:101CD000109173040FB6F8940F92D8015A969C9104
:101CE0005A975B968C915B97981708F0A9C15C9600
:101CF0004C915C9741118EC08D919C911197892BCD
:101D000009F0A6C012966D917C911397611571052B
:101D100009F477C0FB0182A1815082A3268991A199
:101D2000291709F470C0811170C0DB011296189652
:101D30008D919C91199712962D913C911397149621
:101D40004D915C911597F9015583448314962D911B
:101D50003C91159712964D915C911397F90153831D
:101D60004283FC0121813281A217B30731F414961A
:101D70002D913C9115973283218319961C921E92C6
:101D80001897FC01208121502083FB0181A1868BC3
:101D900024E030E0281B3109358724879091B6056F
:101DA000981710F48093B60590E0FC01EE0FFF1F2A
:101DB000EE0FFF1FEE0FFF1F8E0F9F1FAC014E5641
:101DC0005A4FFA018181928113969C938E931297B8
:101DD000FC012481358115963C932E931497248120
:101DE0003581F901B383A283FC01B583A4831996DD
:101DF0005C934E931897DA018C918F5F8C9381E0FE
:101E000005C080E003C080E001C080E0F8011382DB
:101E1000128221C050E0BE016F5F7F4FD80114963F
:101E20008D919C9115970F94B704F801248D8481AE
:101E30009581820F911D958384832281338182173E
:101E4000930740F0808191819583848380E003C073
:101E500080E001C080E0D8015A969C915A979F5F1C
:101E60005A969C935A9751969C915197992309F4AD
:101E7000E1C05696ED91FC91579766817781FB0101
:101E80003C96808591852281338144815581D90199
:101E900015965C934E93149724813581428153812A
:101EA000D90113965C934E931297DC0111962D91F4
:101EB0003C911297E217F30731F424813581129691
:101EC0003C932E93119711861086DC012C912150A2
:101ED0002C938091BA05811175C09B012E5F3F4FF5
:101EE000D9011896ED91FC91199712968D919C91BC
:101EF000139714964D915C911597DC0115965C93A0
:101F00004E931497D90114968D919C911597129622
:101F10004D915C911397DC0113965C934E9312974D
:101F2000818192812817390739F4D90114968D914E
:101F30009C91159792838183D90119961C921E92C8
:101F40001897808181508083FB0186899091B60526
:101F5000981710F48093B60590E0FC01EE0FFF1F78
:101F6000EE0FFF1FEE0FFF1F8E0F9F1FFC01EE569F
:101F7000FA4F81819281D90113969C938E93129787
:101F8000DC0114964D915C911597D90115965C93DF
:101F90004E931497DC0114964D915C911597DA01DC
:101FA00013963C932E931297DC0115963C932E9337
:101FB0001497D9011996FC93EE93189780818F5F3F
:101FC000808324C088E894E0DC0111962D913C9137
:101FD000129733832283D90114964D915C91159702
:101FE0005583448314964D915C911597DA011396AD
:101FF000FC93EE931297D9011596FC93EE931497E8
:1020000091878087FC0120812F5F2083DB0156961A
:102010009C91E091B705F091B8058689891720F465
:1020200081E08093B90501C080E0813031F40E94E5
:1020300093B203C081110E9493B20F900FBEBAC138
:102040000F900FBEB7C100917204109173040FB6C8
:10205000F8940F92F801928D838D981708F0A8C11B
:10206000448D411192C080819181892B09F0A8C0D3
:10207000628173816115710509F47EC0DB0192965E
:102080008C919297815092968C93929756962C9120
:10209000569791969C919197291709F46FC08111D9
:1020A0006FC0129618968D919C91199712962D914A
:1020B0003C91139714964D915C911597F9015583B6
:1020C000448314962D913C91159712964D915C91F5
:1020D0001397F90153834283FC0121813281A217B6
:1020E000B30731F414962D913C91159732832183D7
:1020F00019961C921E921897FC0120812150208372
:10210000FB0181A1868B24E030E0281B3109358753
:1021100024879091B605981710F48093B60590E047
:10212000FC01EE0FFF1FEE0FFF1FEE0FFF1F8E0FC4
:102130009F1FAC014E565A4FFA018181928113962E
:102140009C938E931297FC012481358115963C93C4
:102150002E93149724813581F901B383A283FC0166
:10216000B583A48319965C934E931897DA018C91EA
:102170008F5F8C9381E005C080E003C080E001C0E8
:1021800080E0F801138212821EC050E0BE016F5F32
:102190007F4F848195810F94B704F801248D848149
:1021A0009581820F911D95838483228133818217CB
:1021B000930740F0808191819583848380E003C000
:1021C00080E001C080E0D8015A969C915A979F5FA9
:1021D0005A969C935A9751969C915197992309F43A
:1021E000E1C05696ED91FC91579766817781FB018E
:1021F0003C96808591852281338144815581D90126
:1022000015965C934E9314972481358142815381B6
:10221000D90113965C934E931297DC0111962D9180
:102220003C911297E217F30731F42481358112961D
:102230003C932E93119711861086DC012C9121502E
:102240002C938091BA05811175C09B012E5F3F4F81
:10225000D9011896ED91FC91199712968D919C9148
:10226000139714964D915C911597DC0115965C932C
:102270004E931497D90114968D919C9115971296AF
:102280004D915C911397DC0113965C934E931297DA
:10229000818192812817390739F4D90114968D91DB
:1022A0009C91159792838183D90119961C921E9255
:1022B0001897808181508083FB0186899091B605B3
:1022C000981710F48093B60590E0FC01EE0FFF1F05
:1022D000EE0FFF1FEE0FFF1F8E0F9F1FFC01EE562C
:1022E000FA4F81819281D90113969C938E93129714
:1022F000DC0114964D915C911597D90115965C936C
:102300004E931497DC0114964D915C911597DA0168
:1023100013963C932E931297DC0115963C932E93C3
:102320001497D9011996FC93EE93189780818F5FCB
:10233000808324C088E894E0DC0111962D913C91C3
:10234000129733832283D90114964D915C9115978E
:102350005583448314964D915C911597DA01139639
:10236000FC93EE931297D9011596FC93EE93149774
:1023700091878087FC0120812F5F2083DB015696A7
:102380009C91E091B705F091B8058689891720F4F2
:1023900081E08093B90501C080E0813031F40E9472
:1023A00093B203C081110E9493B20F900FBE02C07E
:1023B0000F900FBEE0915E04F0915F048081811167
:1023C000DBCB80915C0490915D0490935F048093DB
:1023D0005E04F0935D04E0935C0481E090925B0402
:1023E00080925A0481110C942C1E772009F45AC64D
:1023F0008C149D0408F456C60FB6F8940F92809181
:10240000BA0581508093BA058091BA058111F6C151
:102410008091A3048111A0C0F1C1E0918D04F091DD
:102420008E0426813781F9013C9660857185828111
:10243000938144815581DC0115965C934E931497EA
:102440008481958142815381DC0113965C934E9384
:102450001297DB0111968D919C911297E817F9075D
:1024600031F48481958112969C938E9311971186F5
:102470001086FB01808181508083D90112961896C5
:102480006D917C91199712968D919C91139714964A
:102490004D915C911597FC015583448314968D9161
:1024A0009C91159712964D915C911397FC01538363
:1024B0004283FB0181819281A817B90731F41496F8
:1024C0008D919C9115979283818319961C921E92EF
:1024D0001897FB01808181508083F9018689909152
:1024E000B605981710F48093B60590E0FC01EE0F46
:1024F000FF1FEE0FFF1FEE0FFF1F8E0F9F1FBC0170
:102500006E567A4FFB018181928113969C938E9334
:102510001297FC014481558115965C934E93149754
:1025200044815581FA01B383A283FC01B583A4835E
:1025300019967C936E931897DB018C918F5F8C9327
:10254000F9019689E091B705F091B8058689981749
:1025500018F081E08093B9058091880481115DCFE6
:1025600080918805811140C143C18091BA058111D4
:1025700025C18091900590919105019690939105C8
:10258000809390054091900550919105411551051A
:1025900099F580918E0590918F0520918C05309151
:1025A0008D0530938F0520938E0590938D05809334
:1025B0008C0580918B058F5F80938B05E0918E0554
:1025C000F0918F058081811107C08FEF9FEF90936D
:1025D0008A058093890510C0E0918E05F0918F05E2
:1025E0000580F681E02D0680F781E02D82819381C0
:1025F00090938A05809389058091890590918A0539
:102600004817590720F460E0C3C061E001C060E0F2
:10261000E0918E05F0918F058081811107C08FEFC9
:102620009FEF90938A0580938905B2C0E0918E0553
:10263000F0918F050580F681E02D26813781D90143
:1026400012968D919C9113974817590728F49093EF
:102650008A05809389059CC0D90112961896ED9041
:10266000FC90199712968D919C91139714960D9149
:102670001C911597FC011583048314968D919C91F0
:10268000159712960D911C911397FC0113830283E9
:10269000F70181819281A817B90731F414968D91C1
:1026A0009C9115979283818319961C921E9218977C
:1026B000F701808181508083F90184899589892B74
:1026C00049F15901FCE0AF0EB11CF50180859185FF
:1026D00002811381E480F580F801F582E482F5013E
:1026E00004811581E280F380F801F382E282FC012B
:1026F00001811281A016B10631F4F5010481158122
:10270000FC0112830183F50111861086FC017081A2
:1027100071507083F90186899091B605981710F46D
:102720008093B60590E0FC01EE0FFF1FEE0FFF1F38
:10273000EE0FFF1F8E0F9F1FFC01EE56FA4F7F0119
:102740008181928113969C938E931297FC01048150
:10275000158115961C930E93149704811581F80129
:10276000B383A283FC01B583A4831996FC92EE92F5
:102770001897D7018C918F5F8C93F9019689E0911E
:10278000B705F091B8058689981708F03ECF40CF7D
:10279000E091B705F091B805868990E0FC01EE0F55
:1027A000FF1FEE0FFF1FEE0FFF1F8E0F9F1FFC017D
:1027B000EE56FA4F8081823040F408C0809188053F
:1027C0008F5F8093880560E001C061E08091B9056A
:1027D000811161E0662319F081E08093B905809151
:1027E0008805815080938805809188058111BDCE30
:1027F0008091B905813011F40E9493B20F900FBE01
:10280000E0915E04F0915F040580F681E02DE680A2
:10281000F780F7013296408551858281938124812A
:102820003581DC0115963C932E9314978481958114
:1028300022813381DC0113963C932E931297DA01A7
:1028400011968D919C911297E817F90731F48481C4
:10285000958112969C938E93119711861086DA01BA
:102860008C9181508C93D7011E968C911E9781304C
:1028700009F00FC41C962D913C911D97C9018C0D38
:102880009D1D13969C938E9312971996FC92EE922F
:1028900018978816990608F443C08C189D0882166C
:1028A000930608F082C080915C0490915D041296BA
:1028B0002D913C9113972F3FBFEF3B0731F4DC0183
:1028C00017960D911C91189710C08C010D5F1F4F2A
:1028D00001C08A01D80112964D915C911397DA01DB
:1028E0006D917C9126173707A0F7D80112962D918C
:1028F0003C91139733832283D9011596FC93EE9371
:10290000149715830483D8011396FC93EE931297C2
:1029100091878087FC0120812F5F208380E048C061
:102920008C149D0420F48C159D0508F040C0809106
:102930005E0490915F04D70112962D913C911397FC
:102940002F3FBFEF3B0731F4DC0117960D911C912F
:10295000189710C08C010D5F1F4F01C08A01D8016C
:1029600012964D915C911397DA016D917C91261727
:102970003707A0F7D80112962D913C911397338316
:102980002283D9011596FC93EE9314971583048343
:10299000D8011396FC93EE93129791878087FC01E0
:1029A00020812F5F208380E003C081E001C081E0AF
:1029B000813009F06EC38091720490917304892B69
:1029C00009F467C31982DB82CA82FD82EC8280919E
:1029D0007504882331F08091BA05811104C082E02A
:1029E00003C081E001C080E0823009F0ACC10091F9
:1029F0007204109173040FB6F8940F92D8015A968E
:102A00009C915A975B968C915B97981708F098C1A8
:102A10005C964C915C9741118EC08D919C91119761
:102A2000892B09F0A6C012966D917C9113976115C0
:102A3000710509F477C0FB0182A1815082A3268928
:102A400091A1291709F470C0811170C0DB011296A1
:102A500018968D919C91199712962D913C911397F0
:102A600014964D915C911597F90155834483149602
:102A70002D913C91159712964D915C911397F90108
:102A800053834283FC0121813281A217B30731F4C1
:102A900014962D913C9115973283218319961C929F
:102AA0001E921897FC01208121502083FB0181A1F7
:102AB000868B24E030E0281B3109358724879091EC
:102AC000B605981710F48093B60590E0FC01EE0F60
:102AD000FF1FEE0FFF1FEE0FFF1F8E0F9F1FAC019A
:102AE0004E565A4FFA018181928113969C938E9390
:102AF0001297FC012481358115963C932E931497EF
:102B000024813581F901B383A283FC01B583A483B9
:102B100019965C934E931897DA018C918F5F8C9382
:102B200081E005C080E003C080E001C080E0F801E2
:102B30001382128221C050E0BE016F5F7F4FD80127
:102B400014968D919C9115970F94B704F801248DDC
:102B500084819581820F911D9583848322813381A5
:102B60008217930740F0808191819583848380E070
:102B700003C080E001C080E0D8015A969C915A972A
:102B80009F5F5A969C935A9751969C91519799237F
:102B900009F4D0C05696ED91FC9157972681378164
:102BA000F9013C96608571858281938144815581CC
:102BB000DC0115965C934E93149784819581428134
:102BC0005381DC0113965C934E931297DB011196AF
:102BD0008D919C911297E817F90731F484819581C2
:102BE00012969C938E93119711861086DB018C911F
:102BF00081508C938091BA05811164C0D9011296DD
:102C000018966D917C91199712968D919C911397BE
:102C100014964D915C911597FC015583448314964D
:102C20008D919C91159712964D915C911397FC0193
:102C300053834283FB0181819281A817B90731F444
:102C400014968D919C9115979283818319961C926D
:102C50001E921897FB01808181508083F90186893B
:102C60009091B605981710F48093B60590E0FC019A
:102C7000EE0FFF1FEE0FFF1FEE0FFF1F8E0F9F1FA8
:102C8000BC016E567A4FFB018181928113969C9311
:102C90008E931297FC014481558115965C934E9357
:102CA000149744815581FA01B383A283FC01B58353
:102CB000A48319967C936E931897DB018C918F5F98
:102CC0008C9324C068E874E0DB0111968D919C918F
:102CD000129793838283DC0114964D915C91159732
:102CE0005583448314964D915C911597DA011396A0
:102CF000FC93EE931297DC011596FC93EE931497D8
:102D000071876087FB0180818F5F8083D901569630
:102D10009C91E091B705F091B8058689891720F458
:102D200081E08093B90501C080E0813031F40E94D8
:102D300093B203C081110E9493B20F900FBEA9C13C
:102D40000F900FBEA6C100917204109173040FB6CC
:102D5000F8940F92F801928D838D981708F097C11F
:102D6000448D411192C080819181892B09F0A8C0C6
:102D7000628173816115710509F47EC0DB01929651
:102D80008C919297815092968C93929756962C9113
:102D9000569791969C919197291709F46FC08111CC
:102DA0006FC0129618968D919C91199712962D913D
:102DB0003C91139714964D915C911597F9015583A9
:102DC000448314962D913C91159712964D915C91E8
:102DD0001397F90153834283FC0121813281A217A9
:102DE000B30731F414962D913C91159732832183CA
:102DF00019961C921E921897FC0120812150208365
:102E0000FB0181A1868B24E030E0281B3109358746
:102E100024879091B605981710F48093B60590E03A
:102E2000FC01EE0FFF1FEE0FFF1FEE0FFF1F8E0FB7
:102E30009F1FAC014E565A4FFA0181819281139621
:102E40009C938E931297FC012481358115963C93B7
:102E50002E93149724813581F901B383A283FC0159
:102E6000B583A48319965C934E931897DA018C91DD
:102E70008F5F8C9381E005C080E003C080E001C0DB
:102E800080E0F801138212821EC050E0BE016F5F25
:102E90007F4F848195810F94B704F801248D84813C
:102EA0009581820F911D95838483228133818217BE
:102EB000930740F0808191819583848380E003C0F3
:102EC00080E001C080E0D8015A969C915A979F5F9C
:102ED0005A969C935A9751969C915197992309F42D
:102EE000D0C05696ED91FC91579726813781F90114
:102EF0003C96608571858281938144815581DC0196
:102F000015965C934E9314978481958142815381E9
:102F1000DC0113965C934E931297DB0111968D9111
:102F20009C911297E817F90731F4848195811296E4
:102F30009C938E93119711861086DB018C918150A2
:102F40008C938091BA05811164C0D90112961896AC
:102F50006D917C91199712968D919C91139714966F
:102F60004D915C911597FC015583448314968D9186
:102F70009C91159712964D915C911397FC01538388
:102F80004283FB0181819281A817B90731F414961D
:102F90008D919C9115979283818319961C921E9214
:102FA0001897FB01808181508083F9018689909177
:102FB000B605981710F48093B60590E0FC01EE0F6B
:102FC000FF1FEE0FFF1FEE0FFF1F8E0F9F1FBC0195
:102FD0006E567A4FFB018181928113969C938E935A
:102FE0001297FC014481558115965C934E9314977A
:102FF00044815581FA01B383A283FC01B583A48384
:1030000019967C936E931897DB018C918F5F8C934C
:1030100024C068E874E0DB0111968D919C911297B1
:1030200093838283DC0114964D915C9115975583AF
:10303000448314964D915C911597DA011396FC9395
:10304000EE931297DC011596FC93EE93149771871B
:103050006087FB0180818F5F8083D90156969C91A8
:10306000E091B705F091B8058689891720F481E0D1
:103070008093B90501C080E0813031F40E9493B2A1
:1030800003C081110E9493B20F900FBE02C00F9037
:103090000FBED7015196ED91FC915297C70119953A
:1030A0000C944F2B711009C0E0915C04F0915D0409
:1030B00081E09081911180E0682EC818D908E091D4
:1030C0007204F09173040FB6F8940F92858D8F3FC0
:1030D00009F4158E868D8F3F09F4168E0F900FBE62
:1030E000828D81116AC1A091B705B091B805BD016B
:1030F000645F7F4F9F012F5E3F4FD90111964D9125
:103100005C911297DB0113965C934E931297DA0150
:1031100014968D919C911597DB0115969C938E9337
:103120001497DA0114968D919C911597DC011396F2
:103130007C936E931297DA0115967C936E93149795
:10314000DB0119963C932E93189781898F5F818BB1
:10315000A091B705B091B805BD016E5F7F4FDB014F
:1031600018962D913C91199712968D919C911397D9
:1031700014964D915C911597DC0115965C934E93D6
:103180001497DB0114968D919C91159712964D9191
:103190005C911397DC0113965C934E931297D901BF
:1031A00011968D919C9112976817790751F4DB0164
:1031B00014968D919C911597D90112969C938E939C
:1031C0001197DB0119961C921E921897D9019C91B8
:1031D00091509C93B1E06B1236C0A091B705B091AD
:1031E000B805BD016E5F7F4F86E794E0DC01119664
:1031F0002D913C911297DB0113963C932E931297DD
:10320000D90114964D915C911597DB0115965C934D
:103210004E931497D90114964D915C911597DA014C
:1032200013967C936E931297D90115967C936E93A7
:103230001497DB0119969C938E931897DC012C91BF
:103240002F5F2C93BAC080919005909191058C0DC1
:103250009D1DA091B705B091B80513969C938E93D0
:10326000129720919005309191058217930708F0ED
:103270004DC0A091B705B091B8059D012E5F3F4F9D
:1032800080918C0590918D0512964D915C911397CC
:103290004F3FBFEF5B0731F4DC011796ED90FC90D8
:1032A000189711C07C01B3E0EB0EF11C01C07B014B
:1032B000D70112966D917C911397DB010D911C91B2
:1032C00040175107A0F7D70112964D915C911397C3
:1032D000D90113965C934E931297DA0115963C939D
:1032E0002E931497D9011596FC92EE921497D7015C
:1032F00013963C932E931297D90119969C938E9313
:103300001897DC012C912F5F2C9357C0A091B70523
:10331000B091B805AD014E5F5F4F20918E053091A1
:103320008F0512966D917C9113976F3FBFEF7B07CE
:1033300031F4D9011796CD90DC90189711C069012E
:10334000B3E0CB0ED11C01C06801D60112960D91DD
:103350001C911397D801ED90FC906E157F05A0F796
:10336000D60112966D917C911397DA0113967C9396
:103370006E931297DB0115965C934E931497DA01C6
:103380001596DC92CE921497D60113965C934E93C9
:103390001297DA0119963C932E931897D9014C9104
:1033A0004F5F4C932091890530918A0582179307CE
:1033B00020F490938A05809389050FB6F8940F92B4
:1033C00013C18189882309F413C1A689B789169688
:1033D0004D915C9117978A01045F1F4FD801189691
:1033E0008D919C91199712962D913C91139714965B
:1033F0006D917C911597D90115967C936E931497D6
:10340000D80114962D913C91159712966D917C914F
:103410001397D90113967C936E931297DC01119642
:103420002D913C9112970217130751F4D80114966D
:103430002D913C911597DC0112963C932E93119798
:10344000D80119961C921E921897DC012C912150DC
:103450002C938091BA05811181C09A012E5F3F4F54
:10346000D90118960D911C91199712968D919C91E6
:10347000139714966D917C911597DC0115967C93AA
:103480006E931497D90114968D919C91159712966D
:103490006D917C911397DC0113967C936E93129738
:1034A000D80111968D919C9112972817390751F4E4
:1034B000D90114968D919C911597D80112969C93E1
:1034C0008E931197D90119961C921E921897D801C4
:1034D0008C9181508C93DA0156968C919091B6051F
:1034E000981710F48093B60590E0DC01AA0FBB1F7B
:1034F000AA0FBB1FAA0FBB1FA80FB91F8D010E5625
:103500001A4FD80111968D919C911297D90113965B
:103510009C938E931297DC0114966D917C91159774
:10352000D90115967C936E931497DC0114966D91D6
:103530007C911597DB0113963C932E931297DC0137
:1035400015963C932E931497D90119961C930E93BC
:103550001897D8018C918F5F8C932EC088E894E0E7
:10356000DC0111962D913C911297D80113963C9352
:103570002E931297D90114966D917C911597D801CD
:1035800015967C936E931497D90114966D917C9146
:103590001597DB0113961C930E931297D90115967C
:1035A0001C930E931497D80119969C938E93189799
:1035B000DC012C912F5F2C93DA0156969C91A091FF
:1035C000B705B091B80556968C91891720F481E023
:1035D0008093B90501C080E0882319F081E08093D1
:1035E000B905868D8150868F868D18160CF4E9CE2C
:1035F0008FEF868F0F900FBE0FB6F8940F9213C106
:103600008085882309F413C1A585B68516964D914A
:103610005C9117978A01045F1F4FD80118968D910E
:103620009C91199712962D913C91139714966D9138
:103630007C911597D90115967C936E931497D801B8
:1036400014962D913C91159712966D917C9113973C
:10365000D90113967C936E931297DC0111962D91EC
:103660003C9112970217130751F4D80114962D912B
:103670003C911597DC0112963C932E931197D8013B
:1036800019961C921E921897DC012C9121502C93B4
:103690008091BA05811181C09A012E5F3F4FD901F7
:1036A00018960D911C91199712968D919C911397D4
:1036B00014966D917C911597DC0115967C936E9311
:1036C0001497D90114968D919C91159712966D912E
:1036D0007C911397DC0113967C936E931297D8011B
:1036E00011968D919C9112972817390751F4D901A1
:1036F00014968D919C911597D80112969C938E9358
:103700001197D90119961C921E921897D8018C9185
:1037100081508C93DA0156968C919091B60598174A
:1037200010F48093B60590E0DC01AA0FBB1FAA0F2E
:10373000BB1FAA0FBB1FA80FB91F8D010E561A4F32
:10374000D80111968D919C911297D90113969C9353
:103750008E931297DC0114966D917C911597D90187
:1037600015967C936E931497DC0114966D917C9161
:103770001597DB0113963C932E931297DC01159657
:103780003C932E931497D90119961C930E93189776
:10379000D8018C918F5F8C932EC088E894E0DC0177
:1037A00011962D913C911297D80113963C932E932C
:1037B0001297D90114966D917C911597D8011596A1
:1037C0007C936E931497D90114966D917C91159703
:1037D000DB0113961C930E931297D90115961C9337
:1037E0000E931497D80119969C938E931897DC0129
:1037F0002C912F5F2C93DA0156969C91A091B705DE
:10380000B091B80556968C91891720F481E0809389
:10381000B90501C080E0882319F081E08093B905E3
:10382000858D8150858F858D18160CF4E9CE8FEF2C
:10383000858F0F900FBE0FB6F8940F928091BA0546
:1038400081508093BA058091BA058111F9C18091A8
:10385000A3048111A0C0F7C1E0918D04F0918E0402
:1038600026813781F9013C9660857185828193813B
:1038700044815581DC0115965C934E9314978481A5
:10388000958142815381DC0113965C934E9312978C
:10389000DB0111968D919C911297E817F90731F48D
:1038A0008481958112969C938E9311971186108630
:1038B000FB01808181508083D901129618966D9109
:1038C0007C91199712968D919C91139714964D9116
:1038D0005C911597FC015583448314968D919C91BE
:1038E000159712964D915C911397FC015383428377
:1038F000FB0181819281A817B90731F414968D914B
:103900009C9115979283818319961C921E92189709
:10391000FB01808181508083F90186899091B605F1
:10392000981710F48093B60590E0FC01EE0FFF1F8E
:10393000EE0FFF1FEE0FFF1FE80FF91FBF016E56BE
:103940007A4FFB018181928113969C938E931297FB
:10395000FC014481558115965C934E9314974481E4
:103960005581FA01B383A283FC01B583A483199620
:103970007C936E931897DB018C918F5F8C93F90188
:103980009689E091B705F091B8058689981718F0E7
:1039900081E08093B9058091880481115DCF809189
:1039A0008805811141C144C18091BA05811126C1A8
:1039B0008091900590919105019690939105809347
:1039C000900540919005509191054115510599F54B
:1039D00080918E0590918F0520918C0530918D05F9
:1039E00030938F0520938E0590938D0580938C05E1
:1039F00080918B058F5F80938B05E0918E05F09110
:103A00008F058081811107C08FEF9FEF90938A050A
:103A10008093890510C0E0918E05F0918F05058097
:103A2000F681E02D0680F781E02D828193819093CD
:103A30008A05809389058091890590918A054817A8
:103A4000590720F460E0C4C061E001C060E0E0918B
:103A50008E05F0918F058081811107C08FEF9FEF58
:103A600090938A0580938905B3C0E0918E05F0910B
:103A70008F050580F681E02D26813781D9011296C8
:103A80008D919C9113974817590728F490938A05B4
:103A9000809389059DC0D90112961896ED90FC90EF
:103AA000199712968D919C91139714960D911C91D4
:103AB0001597FC011583048314968D919C9115979D
:103AC00012960D911C911397FC0113830283F70149
:103AD00081819281A817B90731F414968D919C9138
:103AE00015979283818319961C921E921897F7015D
:103AF000808181508083F90184899589892B49F1DE
:103B00006901FCE0CF0ED11CF60180859185028110
:103B10001381E480F580F801F582E482F6010481E6
:103B20001581E280F380F801F382E282FC010181D9
:103B30001281C016D10631F4F60104811581FC0111
:103B400012830183F60111861086FC017081715089
:103B50007083F90186899091B605981710F48093C7
:103B6000B60590E0FC01EE0FFF1FEE0FFF1FEE0FFA
:103B7000FF1FE80FF91FCF018E569A4F7C01FC0101
:103B80008181928113969C938E931297FC010481FC
:103B9000158115961C930E93149704811581F801D5
:103BA000B383A283FC01B583A4831996FC92EE92A1
:103BB0001897D7018C918F5F8C93F9019689E091CA
:103BC000B705F091B8058689981708F03DCF3FCF2B
:103BD000E091B705F091B805868990E0FC01EE0F01
:103BE000FF1FEE0FFF1FEE0FFF1F8E0F9F1FFC0129
:103BF000EE56FA4F8081823040F408C080918805EB
:103C00008F5F8093880560E001C061E08091B90515
:103C1000811161E0662319F081E08093B9058091FC
:103C20008805815080938805809188058111BCCEDC
:103C30008091B905813031F40E9493B281E003C0D4
:103C400080E001C080E00F900FBE81110C944F2BDB
:103C50000E9493B20C944F2B0FB6F8940F92809160
:103C6000BA0581508093BA058091BA058111F6C1D9
:103C70008091A3048111A0C0F1C1E0918D04F09165
:103C80008E0426813781F9013C9660857185828199
:103C9000938144815581DC0115965C934E93149772
:103CA0008481958142815381DC0113965C934E930C
:103CB0001297DB0111968D919C911297E817F907E5
:103CC00031F48481958112969C938E93119711867D
:103CD0001086FB01808181508083D901129618964D
:103CE0006D917C91199712968D919C9113971496D2
:103CF0004D915C911597FC015583448314968D91E9
:103D00009C91159712964D915C911397FC015383EA
:103D10004283FB0181819281A817B90731F414967F
:103D20008D919C9115979283818319961C921E9276
:103D30001897FB01808181508083F90186899091D9
:103D4000B605981710F48093B60590E0FC01EE0FCD
:103D5000FF1FEE0FFF1FEE0FFF1F8E0F9F1FBC01F7
:103D60006E567A4FFB018181928113969C938E93BC
:103D70001297FC014481558115965C934E931497DC
:103D800044815581FA01B383A283FC01B583A483E6
:103D900019967C936E931897DB018C918F5F8C93AF
:103DA000F9019689E091B705F091B80586899817D1
:103DB00018F081E08093B9058091880481115DCF6E
:103DC00080918805811140C143C18091BA0581115C
:103DD00025C1809190059091910501969093910550
:103DE0008093900560919005709191056115710522
:103DF00099F580918E0590918F0520918C053091D9
:103E00008D0530938F0520938E0590938D058093BB
:103E10008C0580918B058F5F80938B05E0918E05DB
:103E2000F0918F058081811107C08FEF9FEF9093F4
:103E30008A058093890510C0E0918E05F0918F0569
:103E40000580F681E02D0680F781E02D8281938147
:103E500090938A05809389058091890590918A05C0
:103E60006817790720F420E0C3C021E001C020E0FA
:103E7000E0918E05F0918F058081811107C08FEF51
:103E80009FEF90938A0580938905B2C0E0918E05DB
:103E9000F0918F050580F681E02D46815781DA018A
:103EA00012968D919C9113976817790728F4909337
:103EB0008A05809389059CC0DA0112961896ED90C8
:103EC000FC90199712968D919C91139714960D91D1
:103ED0001C911597FC011583048314968D919C9178
:103EE000159712960D911C911397FC011383028371
:103EF000F70181819281A817B90731F414968D9149
:103F00009C9115979283818319961C921E92189703
:103F1000F701808181508083FA0184899589892BFA
:103F200049F16A01FCE0CF0ED11CF6018085918534
:103F300002811381E480F580F801F582E482F601C4
:103F400004811581E280F380F801F382E282FC01B2
:103F500001811281C016D10631F4F6010481158168
:103F6000FC0112830183F60111861086FC01308169
:103F700031503083FA0186899091B605981710F474
:103F80008093B60590E0FC01EE0FFF1FEE0FFF1FC0
:103F9000EE0FFF1F8E0F9F1FFC01EE56FA4F7F01A1
:103FA0008181928113969C938E931297FC010481D8
:103FB000158115961C930E93149704811581F801B1
:103FC000B383A283FC01B583A4831996FC92EE927D
:103FD0001897D7018C918F5F8C93FA019689E091A5
:103FE000B705F091B8058689981708F03ECF40CF05
:103FF000E091B705F091B805868990E0FC01EE0FDD
:10400000FF1FEE0FFF1FEE0FFF1F8E0F9F1FFC0104
:10401000EE56FA4F8081823040F408C080918805C6
:104020008F5F8093880520E001C021E08091B90571
:10403000811121E0222319F081E08093B90580915C
:104040008805815080938805809188058111BDCEB7
:104050008091B905813011F40E9493B20F900FBE88
:104060000C944F2B8981882314F40C944F2BCC8013
:10407000DD80D6011A968D919C911B97892B51F169
:10408000F601329640855185828193812481358164
:10409000DC0115963C932E9314978481958122819F
:1040A0003381DC0113963C932E931297DA0111961B
:1040B0008D919C911297E817F90731F484819581CD
:1040C00012969C938E93119711861086FA01808127
:1040D000815080830FB6F8940F92A0909005B09015
:1040E00091050F900FBE80915A0490915B04A81621
:1040F000B90608F4FDC30FC40580F681E02D808069
:104100009180E680F78087010E5F1F4FD8011896D7
:10411000ED91FC91199712962D913C91139714965D
:104120008D919C911597D90115969C938E93149718
:10413000D80114962D913C91159712968D919C91D2
:104140001397D90113969C938E9312978181928134
:104150000817190739F4D80114968D919C91159779
:1041600092838183D80119961C921E9218978081A0
:1041700081508083D7015196ED91FC915297C701F0
:104180001995F7018685813009F0B2C3848595853C
:10419000880D991D88169906E8F593838283F18628
:1041A000E08660915E0470915F04D8018D919C91CE
:1041B0008F3FBFEF9B0731F4DB011796ED91FC9128
:1041C00018970CC0FB01339601C0F901228133819D
:1041D000D9014D915C9184179507B8F7828193813D
:1041E000D80113969C938E931297DC0115961C931D
:1041F0000E931497D8011596FC93EE93149713839E
:10420000028319967C936E931897FB0180818F5FD0
:1042100080836EC38091720490917304892B09F49A
:1042200067C31E8298868F82FA86E986809175041C
:10423000882331F08091BA05811104C082E003C067
:1042400081E001C080E0823009F0ACC100917204CD
:10425000109173040FB6F8940F92D8015A969C915E
:104260005A975B968C915B97981708F098C15C966B
:104270004C915C9741118EC08D919C911197892B27
:1042800009F0A6C012966D917C9113976115710586
:1042900009F477C0FB0182A1815082A3268991A1F4
:1042A000291709F470C0811170C0DB0112961896AD
:1042B0008D919C91199712962D913C91139714967C
:1042C0004D915C911597F9015583448314962D9176
:1042D0003C91159712964D915C911397F901538378
:1042E0004283FC0121813281A217B30731F4149675
:1042F0002D913C9115973283218319961C921E9221
:104300001897FC01208121502083FB0181A1868B1D
:1043100024E030E0281B3109358724879091B605C9
:10432000981710F48093B60590E0FC01EE0FFF1F84
:10433000EE0FFF1FEE0FFF1F8E0F9F1FAC014E569B
:104340005A4FFA018181928113969C938E93129712
:10435000FC012481358115963C932E93149724817A
:104360003581F901B383A283FC01B583A483199637
:104370005C934E931897DA018C918F5F8C9381E058
:1043800005C080E003C080E001C080E0F801138236
:10439000128221C050E0BE016A5F7F4FD80114969F
:1043A0008D919C9115970F94B704F801248D848109
:1043B0009581820F911D9583848322813381821799
:1043C000930740F0808191819583848380E003C0CE
:1043D00080E001C080E0D8015A969C915A979F5F77
:1043E0005A969C935A9751969C915197992309F408
:1043F000D0C05696ED91FC91579726813781F901EF
:104400003C96608571858281938144815581DC0170
:1044100015965C934E9314978481958142815381C4
:10442000DC0113965C934E931297DB0111968D91EC
:104430009C911297E817F90731F4848195811296BF
:104440009C938E93119711861086DB018C9181507D
:104450008C938091BA05811164C0D9011296189687
:104460006D917C91199712968D919C91139714964A
:104470004D915C911597FC015583448314968D9161
:104480009C91159712964D915C911397FC01538363
:104490004283FB0181819281A817B90731F41496F8
:1044A0008D919C9115979283818319961C921E92EF
:1044B0001897FB01808181508083F9018689909152
:1044C000B605981710F48093B60590E0FC01EE0F46
:1044D000FF1FEE0FFF1FEE0FFF1F8E0F9F1FBC0170
:1044E0006E567A4FFB018181928113969C938E9335
:1044F0001297FC014481558115965C934E93149755
:1045000044815581FA01B383A283FC01B583A4835E
:1045100019967C936E931897DB018C918F5F8C9327
:1045200024C068E874E0DB0111968D919C9112978C
:1045300093838283DC0114964D915C91159755838A
:10454000448314964D915C911597DA011396FC9370
:10455000EE931297DC011596FC93EE9314977187F6
:104560006087FB0180818F5F8083D90156969C9183
:10457000E091B705F091B8058689891720F481E0AC
:104580008093B90501C080E0813031F40E9493B27C
:1045900003C081110E9493B20F900FBEA9C10F906A
:1045A0000FBEA6C100917204109173040FB6F89467
:1045B0000F92F801928D838D981708F097C1448D62
:1045C000411192C080819181892B09F0A8C062813C
:1045D00073816115710509F47EC0DB0192968C919F
:1045E0009297815092968C93929756962C915697CB
:1045F00091969C919197291709F46FC081116FC012
:10460000129618968D919C91199712962D913C9126
:10461000139714964D915C911597F9015583448336
:1046200014962D913C91159712964D915C9113978C
:10463000F90153834283FC0121813281A217B30720
:1046400031F414962D913C9115973283218319965C
:104650001C921E921897FC01208121502083FB019F
:1046600081A1868B24E030E0281B3109358724871F
:104670009091B605981710F48093B60590E0FC0170
:10468000EE0FFF1FEE0FFF1FEE0FFF1F8E0F9F1F7E
:10469000AC014E565A4FFA018181928113969C9338
:1046A0008E931297FC012481358115963C932E93AD
:1046B000149724813581F901B383A283FC01B5836A
:1046C000A48319965C934E931897DA018C918F5FAF
:1046D0008C9381E005C080E003C080E001C080E0F1
:1046E000F801138212821EC050E0BE016A5F7F4F44
:1046F000848195810F94B704F801248D848195817C
:10470000820F911D958384832281338182179307C1
:1047100040F0808191819583848380E003C080E0B4
:1047200001C080E0D8015A969C915A979F5F5A9693
:104730009C935A9751969C915197992309F4D0C014
:104740005696ED91FC91579726813781F9013C9659
:10475000608571858281938144815581DC01159644
:104760005C934E9314978481958142815381DC013F
:1047700013965C934E931297DB0111968D919C9149
:104780001297E817F90731F48481958112969C936A
:104790008E93119711861086DB018C9181508C933A
:1047A0008091BA05811164C0D901129618966D9155
:1047B0007C91199712968D919C91139714964D9117
:1047C0005C911597FC015583448314968D919C91BF
:1047D000159712964D915C911397FC015383428378
:1047E000FB0181819281A817B90731F414968D914C
:1047F0009C9115979283818319961C921E9218970B
:10480000FB01808181508083F90186899091B605F2
:10481000981710F48093B60590E0FC01EE0FFF1F8F
:10482000EE0FFF1FEE0FFF1F8E0F9F1FBC016E5676
:104830007A4FFB018181928113969C938E931297FC
:10484000FC014481558115965C934E9314974481E5
:104850005581FA01B383A283FC01B583A483199621
:104860007C936E931897DB018C918F5F8C9324C09F
:1048700068E874E0DB0111968D919C911297938307
:104880008283DC0114964D915C9115975583448386
:1048900014964D915C911597DA011396FC93EE9363
:1048A0001297DC011596FC93EE931497718760873D
:1048B000FB0180818F5F8083D90156969C91E091A6
:1048C000B705F091B8058689891720F481E08093B7
:1048D000B90501C080E0813031F40E9493B203C079
:1048E00081110E9493B20F900FBE02C00F900FBEB5
:1048F000E0915E04F0915F0480818111FDCB809195
:104900005C0490915D0490935F0480935E04F09347
:104910005D04E0935C04B0925B04A0925A04898128
:10492000082E000C990BAA0BBB0B8A30910508F0DE
:10493000B6C6FC018827EE58FF4F8F4F0C94BFFF7F
:104940008A819B81F601448555859C01240F351F82
:1049500033832283D186C086A216B30608F43FC0F3
:10496000A81AB90AA416B50608F07EC0C6010296B8
:1049700000915C0410915D042F3FFFEF3F0731F47D
:10498000D8011796ED91FC9118970CC0F801339659
:1049900001C0FA0142815381DA016D917C912617A1
:1049A0003707B8F722813381DC0113963C932E93AD
:1049B0001297D90115969C938E931497DC01159646
:1049C000FC93EE9314979383828319961C930E9312
:1049D0001897F80180818F5F808380E048C0A81617
:1049E000B90620F42817390708F040C0C60102961E
:1049F00000915E0410915F04D60112962D913C91B6
:104A000013972F3FBFEF3B0731F4D8011796ED9175
:104A1000FC9118970CC0F801339601C0FA0142814D
:104A20005381DA016D917C9126173707B8F72281FF
:104A30003381DC0113963C932E931297D90115967E
:104A40009C938E931497DC011596FC93EE93149728
:104A50009383828319961C930E931897F801808193
:104A60008F5F808380E003C081E001C081E08130FE
:104A700009F015C6D6015196ED91FC915297C601E9
:104A80001995F6018685813009F009C62A813B8196
:104A900084859585820F931F209172043091730451
:104AA000232B09F4FCC51E8298878F83DA86C9867A
:104AB00080917504882331F08091BA05811104C07A
:104AC00082E003C081E001C080E0823009F0ACC127
:104AD00000917204109173040FB6F8940F92D801EC
:104AE0005A969C915A975B968C915B97981708F011
:104AF00098C15C964C915C9741118EC08D919C91B0
:104B00001197892B09F0A6C012966D917C9113978D
:104B10006115710509F477C0FB0182A1815082A360
:104B2000268991A1291709F470C0811170C0DB0199
:104B3000129618968D919C91199712962D913C91F1
:104B4000139714964D915C911597F9015583448301
:104B500014962D913C91159712964D915C91139757
:104B6000F90153834283FC0121813281A217B307EB
:104B700031F414962D913C91159732832183199627
:104B80001C921E921897FC01208121502083FB016A
:104B900081A1868B24E030E0281B310935872487EA
:104BA0009091B605981710F48093B60590E0FC013B
:104BB000EE0FFF1FEE0FFF1FEE0FFF1F8E0F9F1F49
:104BC000AC014E565A4FFA018181928113969C9303
:104BD0008E931297FC012481358115963C932E9378
:104BE000149724813581F901B383A283FC01B58335
:104BF000A48319965C934E931897DA018C918F5F7A
:104C00008C9381E005C080E003C080E001C080E0BB
:104C1000F8011382128221C050E0BE016A5F7F4F0B
:104C2000D80114968D919C9115970F94B704F801B3
:104C3000248D84819581820F911D958384832281A7
:104C400033818217930740F080819181958384831B
:104C500080E003C080E001C080E0D8015A969C91BA
:104C60005A979F5F5A969C935A9751969C91519749
:104C7000992309F4D0C05696ED91FC91579726815F
:104C80003781F9013C9660857185828193814481E9
:104C90005581DC0115965C934E9314978481958120
:104CA00042815381DC0113965C934E931297DB0192
:104CB00011968D919C911297E817F90731F4848130
:104CC000958112969C938E93119711861086DB0125
:104CD0008C9181508C938091BA05811164C0D90167
:104CE000129618966D917C91199712968D919C91C0
:104CF000139714964D915C911597FC01558344834D
:104D000014968D919C91159712964D915C911397E5
:104D1000FC0153834283FB0181819281A817B9076B
:104D200031F414968D919C911597928381831996F5
:104D30001C921E921897FB01808181508083F9019B
:104D400086899091B605981710F48093B60590E087
:104D5000FC01EE0FFF1FEE0FFF1FEE0FFF1F8E0F68
:104D60009F1FBC016E567A4FFB0181819281139681
:104D70009C938E931297FC014481558115965C9308
:104D80004E93149744815581FA01B383A283FC01A9
:104D9000B583A48319967C936E931897DB018C914D
:104DA0008F5F8C9324C068E874E0DB0111968D91CD
:104DB0009C91129793838283DC0114964D915C91B0
:104DC00015975583448314964D915C911597DA019C
:104DD0001396FC93EE931297DC011596FC93EE93D9
:104DE000149771876087FB0180818F5F8083D90171
:104DF00056969C91E091B705F091B8058689891780
:104E000020F481E08093B90501C080E0813031F465
:104E10000E9493B203C081110E9493B20F900FBE03
:104E20003EC40F900FBE3BC40091720410917304F6
:104E30000FB6F8940F92F801928D838D981708F0B1
:104E400097C1448D411192C080819181892B09F0D5
:104E5000A8C0628173816115710509F47EC0DB0110
:104E600092968C919297815092968C9392975696A7
:104E70002C91569791969C919197291709F46FC0A0
:104E800081116FC0129618968D919C911997129668
:104E90002D913C91139714964D915C911597F901C2
:104EA0005583448314962D913C91159712964D91FC
:104EB0005C911397F90153834283FC012181328174
:104EC000A217B30731F414962D913C9115973283B4
:104ED000218319961C921E921897FC012081215063
:104EE0002083FB0181A1868B24E030E0281B31095F
:104EF000358724879091B605981710F48093B605EE
:104F000090E0FC01EE0FFF1FEE0FFF1FEE0FFF1FE3
:104F10008E0F9F1FAC014E565A4FFA01818192812C
:104F200013969C938E931297FC01248135811596DC
:104F30003C932E93149724813581F901B383A28386
:104F4000FC01B583A48319965C934E931897DA01FC
:104F50008C918F5F8C9381E005C080E003C080E07E
:104F600001C080E0F801138212821EC050E0BE0131
:104F70006A5F7F4F848195810F94B704F801248D77
:104F800084819581820F911D958384832281338151
:104F90008217930740F0808191819583848380E01C
:104FA00003C080E001C080E0D8015A969C915A97D6
:104FB0009F5F5A969C935A9751969C91519799232B
:104FC00009F4D0C05696ED91FC9157972681378110
:104FD000F9013C9660857185828193814481558178
:104FE000DC0115965C934E931497848195814281E0
:104FF0005381DC0113965C934E931297DB0111965B
:105000008D919C911297E817F90731F4848195816D
:1050100012969C938E93119711861086DB018C91CA
:1050200081508C938091BA05811164C0D901129688
:1050300018966D917C91199712968D919C9113976A
:1050400014964D915C911597FC01558344831496F9
:105050008D919C91159712964D915C911397FC013F
:1050600053834283FB0181819281A817B90731F4F0
:1050700014968D919C9115979283818319961C9219
:105080001E921897FB01808181508083F9018689E7
:105090009091B605981710F48093B60590E0FC0146
:1050A000EE0FFF1FEE0FFF1FEE0FFF1F8E0F9F1F54
:1050B000BC016E567A4FFB018181928113969C93BD
:1050C0008E931297FC014481558115965C934E9303
:1050D000149744815581FA01B383A283FC01B583FF
:1050E000A48319967C936E931897DB018C918F5F44
:1050F0008C9324C068E874E0DB0111968D919C913B
:10510000129793838283DC0114964D915C911597DD
:105110005583448314964D915C911597DA0113964B
:10512000FC93EE931297DC011596FC93EE93149783
:1051300071876087FB0180818F5F8083D9015696DC
:105140009C91E091B705F091B8058689891720F404
:1051500081E08093B90501C080E0813031F40E9484
:1051600093B203C081110E9493B20F900FBE97C2F9
:105170000F900FBE94C28A819B81F6019587848728
:105180009C012A0D3B1D33832283D186C086A21643
:10519000B306D8F1892B09F482C2C60102960091A8
:1051A0005C0410915D042F3FFFEF3F0731F4D801FD
:1051B0001796ED91FC9118970CC0F801339601C039
:1051C000FA0142815381DA016D917C9126173707EC
:1051D000B8F722813381DC0113963C932E9312970A
:1051E000D90115969C938E931497DC011596FC9328
:1051F000EE9314979383828319961C930E931897BA
:10520000F80180818F5F80834AC2C60102960091B7
:105210005E0410915F04228133812F3FBFEF3B0773
:1052200031F4D8011796ED91FC9118970CC0F80154
:10523000339601C0FA0142815381DA016D917C916C
:1052400026173707B8F722813381DC0113963C9388
:105250002E931297D90115969C938E931497DC0187
:105260001596FC93EE9314979383828319961C935F
:105270000E931897F80180818F5F808310C2C1144C
:10528000D10409F40CC28091BA058F5F8093BA05EE
:10529000C6010F9429040FB6F8940F928091BA05B5
:1052A00081508093BA058091BA058111F6C1809131
:1052B000A3048111A0C0F1C1E0918D04F0918E048E
:1052C00026813781F9013C966085718582819381C1
:1052D00044815581DC0115965C934E93149784812B
:1052E000958142815381DC0113965C934E93129712
:1052F000DB0111968D919C911297E817F90731F413
:105300008481958112969C938E93119711861086B5
:10531000FB01808181508083D901129618966D918E
:105320007C91199712968D919C91139714964D919B
:105330005C911597FC015583448314968D919C9143
:10534000159712964D915C911397FC0153834283FC
:10535000FB0181819281A817B90731F414968D91D0
:105360009C9115979283818319961C921E9218978F
:10537000FB01808181508083F90186899091B60577
:10538000981710F48093B60590E0FC01EE0FFF1F14
:10539000EE0FFF1FEE0FFF1F8E0F9F1FBC016E56FB
:1053A0007A4FFB018181928113969C938E93129781
:1053B000FC014481558115965C934E93149744816A
:1053C0005581FA01B383A283FC01B583A4831996A6
:1053D0007C936E931897DB018C918F5F8C93F9010E
:1053E0009689E091B705F091B8058689981718F06D
:1053F00081E08093B9058091880481115DCF80910F
:105400008805811140C143C18091BA05811125C130
:1054100080919005909191050196909391058093CC
:10542000900560919005709191056115710599F550
:1054300080918E0590918F0520918C0530918D057E
:1054400030938F0520938E0590938D0580938C0566
:1054500080918B058F5F80938B05E0918E05F09195
:105460008F058081811107C08FEF9FEF90938A0590
:105470008093890510C0E0918E05F0918F0505801D
:10548000F681E02D0680F781E02D82819381909353
:105490008A05809389058091890590918A0568170E
:1054A000790720F420E0C3C021E001C020E0E091B2
:1054B0008E05F0918F058081811107C08FEF9FEFDE
:1054C00090938A0580938905B2C0E0918E05F09192
:1054D0008F050580F681E02D46815781DA0112960D
:1054E0008D919C9113976817790728F490938A05FA
:1054F000809389059CC0DA0112961896ED90FC9075
:10550000199712968D919C91139714960D911C9159
:105510001597FC011583048314968D919C91159722
:1055200012960D911C911397FC0113830283F701CE
:1055300081819281A817B90731F414968D919C91BD
:1055400015979283818319961C921E921897F701E2
:10555000808181508083FA0184899589892B49F162
:105560006A01FCE0CF0ED11CF60180859185028195
:105570001381E480F580F801F582E482F60104816C
:105580001581E280F380F801F382E282FC0101815F
:105590001281C016D10631F4F60104811581FC0197
:1055A00012830183F60111861086FC01308131508F
:1055B0003083FA0186899091B605981710F480938C
:1055C000B60590E0FC01EE0FFF1FEE0FFF1FEE0F80
:1055D000FF1F8E0F9F1FFC01EE56FA4F7F01818146
:1055E000928113969C938E931297FC0104811581EE
:1055F00015961C930E93149704811581F801B383BB
:10560000A283FC01B583A4831996FC92EE921897AD
:10561000D7018C918F5F8C93FA019689E091B70541
:10562000F091B8058689981708F03ECF40CFE091F9
:10563000B705F091B805868990E0FC01EE0FFF1FD9
:10564000EE0FFF1FEE0FFF1F8E0F9F1FFC01EE5688
:10565000FA4F8081823040F408C0809188058F5FC6
:105660008093880520E001C021E08091B905811177
:1056700021E0222319F081E08093B905809188050B
:10568000815080938805809188058111BDCE8091DD
:10569000B905813011F40E9493B20F900FBE0091B2
:1056A0007204109173040FB6F8940F92D8015A96B1
:1056B0008C915A97882309F41FC116968D919C915D
:1056C00017975C964C915C974423E1F050E0840F6F
:1056D000951F17969C938E93169712962D913C9139
:1056E00013978217930738F08D919C911197179615
:1056F0009C938E931697F80166817781CE0101966F
:105700000F94B704D8015A968C915A9781505A96A3
:105710008C935A978D919C91892BA1F48091B70518
:105720009091B805892B39F0E091B705F091B80553
:1057300082A18F5F82A38091B7059091B805F8018F
:1057400093838283D80118968C911897882309F443
:10575000CFC01D96ED91FC911E9726813781F901EE
:105760003C96608571858281938144815581DC01FD
:1057700015965C934E931497848195814281538151
:10578000DC0113965C934E931297DB0111968D9179
:105790009C911297E817F90731F48481958112964C
:1057A0009C938E93119711861086DB018C9181500A
:1057B0008C938091BA05811164C0D9011296189614
:1057C0006D917C91199712968D919C9113971496D7
:1057D0004D915C911597FC015583448314968D91EE
:1057E0009C91159712964D915C911397FC015383F0
:1057F0004283FB0181819281A817B90731F4149685
:105800008D919C9115979283818319961C921E927B
:105810001897FB01808181508083F90186899091DE
:10582000B605981710F48093B60590E0FC01EE0FD2
:10583000FF1FEE0FFF1FEE0FFF1F8E0F9F1FBC01FC
:105840006E567A4FFB018181928113969C938E93C1
:105850001297FC014481558115965C934E931497E1
:1058600044815581FA01B383A283FC01B583A483EB
:1058700019967C936E931897DB018C918F5F8C93B4
:1058800024C068E874E0DB0111968D919C91129719
:1058900093838283DC0114964D915C911597558317
:1058A000448314964D915C911597DA011396FC93FD
:1058B000EE931297DC011596FC93EE931497718783
:1058C0006087FB0180818F5F8083D90156969C9110
:1058D000E091B705F091B8058689891720F481E039
:1058E0008093B90501C080E0813011F40E9493B229
:1058F0000F900FBE81E003C00F900FBE80E08111BA
:105900000C9432200C94910D0E9443CA8091BA05E8
:105910008F5F8093BA0580E890E00F9491037C013B
:105920000FB6F8940F928091BA0581508093BA0512
:105930008091BA058111E7C18091A30481119EC0B5
:10594000E2C1E0918D04F0918E04C681D781FE0101
:105950003C96408551858281938124813581DC018B
:1059600015963C932E9314978481958122813381DF
:10597000DC0113963C932E931297DA0111968D91C8
:105980009C911297E817F90731F48481958112965A
:105990009C938E93119711861086FA018081815015
:1059A0008083DE01129618964D915C91199712969C
:1059B0008D919C91139714962D913C911597FC0114
:1059C0003583248314968D919C91159712962D9171
:1059D0003C911397FC0133832283FA0181819281E8
:1059E000A817B90731F414968D919C91159792835D
:1059F000818319961C921E921897FA01808181501A
:105A000080838E899091B605981710F48093B6051F
:105A100090E0FC01EE0FFF1FEE0FFF1FEE0FFF1FC8
:105A20008E0F9F1FAC014E565A4FFA018181928111
:105A300013969C938E931297FC01248135811596C1
:105A40003C932E93149724813581F901B383A2836B
:105A5000FC01B583A48319965C934E931897DA01E1
:105A60008C918F5F8C939E89E091B705F091B8057A
:105A70008689981718F081E08093B9058091880491
:105A800081115FCF80918805811133C136C180912A
:105A9000BA05811118C180919005909191050196E8
:105AA00090939105809390054091900550919105B8
:105AB0004115510599F580918E0590918F052091A2
:105AC0008C0530918D0530938F0520938E05909332
:105AD0008D0580938C0580918B058F5F80938B055E
